:100000000C94E8000C9410010C9410010C94100155
:100010000C9410010C9410010C9410010C9410011C
:100020000C9410010C9410010C9410010C9410010C
:100030000C9410010C9410010C9410010C941001FC
:100040000C9428320C9410010C942F2E0C947D2EBD
:100050000C9410010C9410010C9410010C941001DC
:100060000C9410010C94100108000000BE92244969
:10007000123EABAAAA2ABECDCCCC4C3E00000080DA
:10008000BEABAAAAAA3E00000000BF000000803F4D
:100090000000000000084178D3BB4387D1133D190D
:1000A0000E3CC3BD4282AD2B3E68EC8276BED98F3A
:1000B000E1A93E4C80EFFFBE01C4FF7F3F0000007E
:1000C000000007634236B79BD8A71A39685618AEA6
:1000D000BAAB558C1D3CB7CC5763BD6DEDFD753E7D
:1000E000F6177231BF000000803F49502061646400
:1000F0007265737320666F7220746869732062750D
:100100006C623A20004661696C656420746F2067F8
:100110006574204448435020616464726573732C95
:1001200020747279696E6720616761696E2E2E2E68
:10013000004C4946582062756C6220656D756C6193
:10014000746F7220666F722041726475696E6F20E1
:100150007374617274696E672075702E2E2E0000A4
:10016000000000240027002A0000000000250028CD
:10017000002B0000000000230026002900040404D6
:100180000404040404020202020202030303030340
:10019000030102040810204080010204081020011D
:1001A0000204081020000000070002010000030400
:1001B00006000000000000000000270343030014B5
:1001C000B018501A481C211E5824702BE92F4B30B0
:1001D00011241FBECFEFD8E0DEBFCDBF13E0A0E0FB
:1001E000B1E0EAE8F1E702C005900D92A033B10753
:1001F000D9F716E0A0E3B3E001C01D92AB34B1071C
:10020000E1F711E0C0EDD1E004C02297FE010E94A9
:100210008838CA3BD107C9F70E94C4300C94C33850
:100220000C940000CF93DF93BC018230910510F451
:1002300062E070E0A0914906B0914A06ED01E0E06D
:10024000F0E040E050E021C088819981861797074F
:1002500069F48A819B81309719F09383828304C06B
:1002600090934A0680934906FE0134C068177907C7
:1002700038F44115510519F08417950708F4AC01BD
:10028000FE018A819B819C01E9012097E9F64115D5
:100290005105A9F1CA01861B970B049708F4BA010E
:1002A000E0E0F0E02AC08D919C91119784179507AA
:1002B000F9F46417750781F412968D919C91139748
:1002C000309719F09383828304C090934A068093F9
:1002D0004906FD0132964CC0CA01861B970BFD01F1
:1002E000E80FF91F6193719302978D939C9340C01F
:1002F000FD01828193819C01D9011097A1F6809123
:10030000470690914806892B41F48091090190910C
:100310000A01909348068093470640910B01509143
:100320000C014115510541F44DB75EB780910701AD
:1003300090910801481B590B2091470630914806BF
:10034000CA01821B930B8617970780F0AB014E5FA3
:100350005F4F8417950750F0420F531F5093480684
:1003600040934706F9016193719302C0E0E0F0E029
:10037000CF01DF91CF910895CF93DF93009709F4D8
:1003800050C0EC0122971B821A82A0914906B091BD
:100390004A06109709F140E050E0AC17BD0708F19C
:1003A000BB83AA83FE0121913191E20FF31FAE17A7
:1003B000BF0779F48D919C911197280F391F2E5FFB
:1003C0003F4F3983288312968D919C9113979B837D
:1003D0008A834115510571F4D0934A06C0934906AA
:1003E00020C012968D919C911397AD01009711F04A
:1003F000DC01D3CFFA01D383C28321913191E20F83
:10040000F31FCE17DF0769F488819981280F391F00
:100410002E5F3F4FFA01318320838A819B81938332
:100420008283DF91CF910895A0E0B0E0EAE1F2E0AD
:100430000C949438EC01A880B980CA80DB80A114A8
:10044000B104C104D10441F484E2A82E89EDB82E90
:100450008BE5C82E87E0D82EC601B5012DE133EF1C
:1004600041E050E00E946B3827EA31E440E050E080
:100470000E9416387B018C01C601B5012DE133EFD6
:1004800041E050E00E946B38CA01B9012CEE34EF14
:100490004FEF5FEF0E9416386E0D7F1D801F911F7A
:1004A00097FF04C061507040804090486883798312
:1004B0008A839B839B01AC015F77B901CA01CDB7E9
:1004C000DEB7EAE00C94B0380E94140208958DE083
:1004D00091E00E941402089560930D0170930E0143
:1004E00080930F01909310010895FB01DC0104C07B
:1004F0008D910190801921F441505040C8F7881B1C
:10050000990B0895FB01DC0101900D920020E1F7A9
:100510000895DF92EF92FF920F931F93CF93DF9393
:10052000EC017B01101611062CF0D22E032F20E0D7
:1005300030E002C0D02E012FC05CDF4FA881B9810E
:10054000C054D040FE0160E070E007C0808191811E
:100550003896892B41F06F5F7F4F6A177B07B4F3A2
:10056000EE24FF2422C0E3E0660F771FEA95E1F74F
:10057000DE01A60FB71F1196FC92EE92FE01E60F68
:10058000F71F5383428317963C932E931697FB01D4
:100590003496EC0FFD1FD0820183D701ED91FC91C1
:1005A0000190F081E02DC7010995C701DF91CF913E
:1005B0001F910F91FF90EF90DF900895BF92CF921F
:1005C000DF92EF92FF920F931F93CF93DF936B0114
:1005D000B42EEC0100E010E060E4E62EF12CE80E11
:1005E000F91E13C0A881B9811097A9F0ED91FC9173
:1005F00011974C815D810680F781E02DCD01B60118
:100600002B2D09950F5F1F4F2896F701808191814F
:10061000081719073CF3DF91CF911F910F91FF90BD
:10062000EF90DF90CF90BF900895FC01E05CFF4F0A
:1006300088E090E0819391938FEF8083E254F040C3
:10064000CF0160E040E450E00E943803089580E369
:1006500093E00E94150380E794E6A8EAB0E0809357
:10066000730390937403A0937503B0937603089576
:10067000DC0140FF03C001C06D936D934250E0F771
:100680005040D0F708950F9384EE93E060E040E08F
:1006900020E000E00E943F308BE893E00E94121FB0
:1006A00086EA93E06CE77DED0E94261C8CEA93E0DD
:1006B0000E94F61989EB93E063E045E026E00E9492
:1006C00092150F9108950F931F93DF93CF93CDB79A
:1006D000DEB72C970FB6F894DEBF0FBECDBF8C01EE
:1006E000DC0111969C91119780E02C91820F911D55
:1006F000FA019183808313969C91139780E0129660
:100700002C911297820F911D9383828315962C91C1
:10071000159714968C91149790E0820F911D169660
:100720002C911697820F911D17962C91820F911D77
:10073000AA2797FDA095BA2F84839583A683B783B4
:10074000FE01319686E0DF011D928A95E9F7D80116
:1007500018968C911897898319968C9119978A838A
:100760001A968C911A978B831B968C911B978C836E
:100770001C968C911C978D831D968C918E83DA012B
:10078000189686E001900D928150E1F7F8012785D7
:10079000868590E0820F911DDA011F969C938E93BF
:1007A0001E97FE01379686E0DF011D928A95E9F7D4
:1007B000D80150968C9150978F8351968C91519778
:1007C000888752968C915297898753968C9153972C
:1007D0008A8754968C9154978B8755968C918C87E9
:1007E000DA01509686E001900D928150E1F7F80110
:1007F0002789868990E0820F911DDA0157969C9394
:100800008E935697218D808D90E0820F911D228DC1
:10081000820F911D238D820F911D248D820F911DBA
:10082000258D820F911D268D820F911D278D820FA0
:10083000911D9C01330F220B322F58968C935897A1
:1008400059969C9359975A962C935A975B962C934A
:100850005B975C962C935C975D962C935D975E9668
:100860002C935E975F962C935F9791A180E020A1D7
:10087000820F911D91969C938E93909723A182A1B4
:1008800090E0820F911D93969C938E93929724E211
:1008900030E00AC0FA01E20FF31FD801A20FB31F24
:1008A0008C9180832F5F3F4F261737079CF34C5561
:1008B0005F4FFA01318320832C960FB6F894DEBF88
:1008C0000FBECDBFCF91DF911F910F9108950F9370
:1008D0001F93DF93CF93CDB7DEB7C058D0400FB68C
:1008E000F894DEBF0FBECDBF8C010C551F4FF80131
:1008F00060817181045A1040862F8C5D89836C5D04
:100900007F4F7A8364527040F80182818B838381A8
:100910008C831D821E821F82188628E030E0AE0183
:100920004F5F5F4FFA01E20FF31FD901A75FBE4F80
:100930008C9180832F5F3F4F2E30310599F71F86B2
:10094000188A20E130E0AE014F5F5F4FFA01E20FFD
:10095000F31FD901A95FBE4F8C9180832F5F3F4F5A
:100960002631310599F71F8A188E198E1A8E1B8E23
:100970001C8E1D8E1E8E1F8E18A2F80180A189A3C9
:1009800081A18AA31BA21CA244E250E09E012F5F1A
:100990003F4F0AC0F901E40FF51FD801A40FB51F9E
:1009A0008C9180834F5F5F4FCA01849786179707AA
:1009B0008CF38CEA93E0B9010E94221B0C551F4F67
:1009C000F801208131812C5D3F4FC901C058DF4FB4
:1009D0000FB6F894DEBF0FBECDBFCF91DF911F9150
:1009E0000F910895CF92DF92EF92FF920F931F9392
:1009F000DF93CF93CDB7DEB72C970FB6F894DEBF59
:100A00000FBECDBF6C01CE01019660919C03409159
:100A10009D0320919E030FEF0E943F308DE293E0F3
:100A200098878F838B819C81AD81BE8189879A87CE
:100A3000AB87BC874091A0035091A1038BE893E062
:100A4000BE01695F7F4F0E94091F86010C551F4F31
:100A5000F80160816C5D8BE893E00E94F71DF8015E
:100A6000208131812C5D3F4F8BE893E0632F0E9402
:100A7000F71D8BE893E0F60162810E94F71DF601F5
:100A800063818BE893E00E94F71D8BE893E060E0C0
:100A90000E94F71D8BE893E060E00E94F71D8BE851
:100AA00093E060E00E94F71D8BE893E060E00E9415
:100AB000F71D01E111E007C08BE893E0F8016191B7
:100AC0008F010E94F71DF1E007311F07A9F78BE89E
:100AD00093E060E00E94F71D8BE893E060E00E94E5
:100AE000F71D07E111E007C08BE893E0F801619181
:100AF0008F010E94F71DF1E00D311F07A9F78BE868
:100B000093E060E00E94F71D8BE893E060E00E94B4
:100B1000F71D8BE893E060E00E94F71D8BE893E0FF
:100B200060E00E94F71D8BE893E060E00E94F71DF3
:100B30008BE893E060E00E94F71D8BE893E060E0B3
:100B40000E94F71D8BE893E060E00E94F71D8BE8A0
:100B500093E060E00E94F71D8BE893E060E00E9464
:100B6000F71D8BE893E0F60160A10E94F71DF601E6
:100B700061A18BE893E00E94F71D8BE893E060E0B1
:100B80000E94F71D8BE893E060E00E94F71D84E26D
:100B9000E82EF12CEC0CFD1C00E010E084EA90E063
:100BA000C80ED91E09C08BE893E0F70161917F015F
:100BB0000E94F71D0F5F1F4FF6018081918108177A
:100BC00019078CF38BE893E00E94041FF601208143
:100BD00031812C5D3F4FC9012C960FB6F894DEBFD2
:100BE0000FBECDBFCF91DF911F910F91FF90EF907E
:100BF000DF90CF900895CF93DF93EC010E94F20431
:100C00008CEA93E00E94681A882319F0CE010E94B2
:100C10006704DF91CF910895EF92FF920F931F9396
:100C2000CF93DF93EC01CB01BA0124E630E040E042
:100C300050E00E946B3879018A0183E4E816F104E0
:100C40000105110544F580E090E0AFE7B3E4888347
:100C50009983AA83BB83C801B7010E9498350E947B
:100C600051362DE031EF46EC52E40E9491362CE9EA
:100C70003EE141E253E40E9494346C837D838E8391
:100C80009F8320E030E040E050E00E94F934882368
:100C90000CF051C048C084EC9FEFAFEFBFEFE80EFF
:100CA000F91E0A1F1B1FC801B7010E9498357B015E
:100CB0008C0124ED36E648E05EEB0E94F4369B01A1
:100CC000AC01CA01B90120E739ED44EA53E40E94BE
:100CD0009136688379838A839B8320E030E040E00B
:100CE00050E00E94F934882344F480E090E0A0E0D2
:100CF000B0E088839983AA83BB83688179818A81E4
:100D00009B8120E030E04FE753E40E9448361816FC
:100D10000CF099C080E090E0AFE7B3E4888399835A
:100D2000AA83BB8390C080E090E0A0E0B0E08C8319
:100D30009D83AE83BF836C817D818E819F8120E006
:100D400030E04FE753E40E94483618163CF580E047
:100D500090E0AFE7B3E48C839D83AE83BF831EC076
:100D600080E090E0A0E0B0E08C839D83AE83BF8301
:100D70006C817D818E819F8120E030E04FE753E4DC
:100D80000E94483618160CF055C080E090E0AFE79E
:100D9000B3E48C839D83AE83BF834CC092E4E91699
:100DA000F1040105110509F445C0A4E1EA16F104B6
:100DB000010511052CF480E090E0A0E0B0E03EC019
:100DC00086EF9FEFAFEFBFEFE80EF91E0A1F1B1F64
:100DD000C801B7010E9498350E9451362AE834E8CC
:100DE0004AE053E40E9491362CEB35E848E953E49D
:100DF0000E949434688779878A879B8720E030E057
:100E000040E050E00E94F934882344F480E090E010
:100E1000A0E0B0E088879987AA87BB876885798535
:100E20008A859B8520E030E04FE753E40E944836F6
:100E300018164CF580E090E0AFE7B3E48887998717
:100E4000AA87BB8720C0C801B70127E837EA4AE96B
:100E50005DEB0E94F4369B01AC01CA01B90123EAA3
:100E60003FE040E953E40E9491366C837D838E839A
:100E70009F8320E030E040E050E00E94F934882376
:100E80000CF076CF6DCFCE01DF91CF911F910F91F6
:100E9000FF90EF9008952F923F924F925F926F9242
:100EA0007F928F929F92AF92BF92CF92DF92EF92FA
:100EB000FF920F931F93DF93CF93CDB7DEB7E497E5
:100EC0000FB6F894DEBF0FBECDBF80915D0190914B
:100ED0005E01A0915F01B09160010097A105B1058D
:100EE00009F49CC100D000D060917F037091800311
:100EF000809181039091820327E631E040E050E049
:100F0000ADB7BEB711962D933D934D935C93149757
:100F100020E030E040E050E0AFEFEA2EAFEFFA2EF5
:100F2000012D112DAA24BB2465010E9404347CA745
:100F30006BA76091830370918403809185039091E6
:100F40008603FFEF6F2E712C812C912CEDB7FEB72D
:100F5000618272828382948220E030E040E050E03F
:100F60000E9404341B012C017AA769A760916101DA
:100F7000709162018091630190916401ADB7BEB739
:100F800011966D927D928D929C92149720E030E0A4
:100F900040E050E00E9404346DA77EA78FA798AB75
:100FA00040916501509166016091670170916801FF
:100FB0000F900F900F900F90141615061606170637
:100FC0000CF023C1121413040CF41FC1CE010196BE
:100FD0000E940C06A980BA80CB80DC80ED80FE8068
:100FE0000F81188589859A85AB85BC858DA39EA3C5
:100FF000AFA3B8A7C601B501A80197010E94F934B3
:1010000087FD03C01701280102C015012601C20196
:10101000B1012DA13EA14FA158A50E94F93487FD31
:1010200004C02DA03EA04FA058A4C601B501A80140
:1010300097010E94483618161CF03701480102C07B
:1010400035014601C401B3012DA13EA14FA158A510
:101050000E944836181624F06DA07EA08FA098A498
:10106000C401B30120E030E040E050E00E94483687
:1010700018167CF00F2EF0E0EF2EF0E0FF2EF0ECD3
:101080000F2FFFE71F2FF02D19AA1AAA1BAA1CAABF
:1010900068C0C401B301A20191010E9494341B01F4
:1010A0002C01A40193010E94FD3469AB7AAB8BAB98
:1010B0009CABC601B501A40193010E944836882368
:1010C0006CF0C801B7012DA13EA14FA158A50E9407
:1010D0009434A20191010E94FD3429C0C801B701D6
:1010E000A40193010E94483688238CF06DA17EA153
:1010F0008FA198A5A60195010E949434A2019101A7
:101100000E94FD3420E030E040E050E40EC0C60113
:10111000B501A80197010E949434A20191010E9497
:10112000FD3420E030E040E850E40E94953420E0B7
:1011300030E040E752E40E9491367B018C0120E0D0
:1011400030E040E050E00E94F934882354F4C801B4
:10115000B70120E030E044EB53E40E9495347B017A
:101160008C0169A27AA28BA29CA229A93AA94BA9B7
:101170005CA9C901DA018D8F9E8FAF8FB8A3E98E6C
:10118000FA8E0B8F1C8FDE011D96FE0179968CE086
:1011900001900D928150E1F76D857E858F8598894C
:1011A0000E9465357CA76BA700D000D00DB71EB795
:1011B0000F5F1F4F69897A898B899C8920E030E015
:1011C0004AE754E40E9491360E9465352FEF30E0E3
:1011D00040E050E0D8012D933D934D935C931397DD
:1011E00020E030E040E050E0E8EEEE2EE3E0FE2EBE
:1011F000012D112DAA24BB2465010E9404347AA775
:1012000069A70F900F900F900F9089EB93E06BA55B
:101210007CA549A55AA52DA53EA508C089EB93E05C
:1012200060E070E040E050E020E030E001E00E944B
:10123000810EE4960FB6F894DEBF0FBECDBFCF91FE
:10124000DF911F910F91FF90EF90DF90CF90BF90B3
:10125000AF909F908F907F906F905F904F903F9056
:101260002F9008950F931F93DF93CF9300D000D05A
:1012700000D0CDB7DEB78CED95E040E056E960E0F8
:1012800070E00E94B82E8CED95E061E371E00E9461
:1012900059310CC08CED95E065E071E00E94593148
:1012A00068EE73E080E090E00E94A4328BEA94E064
:1012B00061E171E00E944C19892B61F38CED95E09E
:1012C0006AEE70E00E940E318E010F5F1F4FC80161
:1012D0006BEA74E00E94BF188CED95E0B8010E94A3
:1012E0006D318BE893E06CE77DED0E94AD1F86EADF
:1012F00093E00E948C1D83E061E00E94653385E0ED
:1013000061E00E94653386E061E00E94653384E11C
:1013100090E09093D9038093D8039093DB0380935C
:10132000DA0387E495E06DEF70E00E941B248134BE
:1013300009F07EC087E495E06EEF70E00E941B2408
:101340008C3409F075C087E495E06FEF70E00E947F
:101350001B24813309F06CC000E010E087E495E0C5
:10136000B8010E941B24F801E35EFE4F80830F5FEB
:101370001F4F0032110591F700E210E087E495E07D
:10138000B8010E941B24F801E95AFC4F80830F5FCB
:101390001F4F0832110591F708E210E087E495E04D
:1013A000B8010E941B24F801EB5EFE4F80830F5FA3
:1013B0001F4F0834110591F72EC0F801E35EFE4F70
:1013C00087E495E0B80140810E9422240F5F1F4FFF
:1013D0000032110591F700E210E0F801E95AFC4FE4
:1013E00087E495E0B80140810E9422240F5F1F4FDF
:1013F0000832110591F708E210E0F801EB5EFE4FAC
:1014000087E495E0B80140810E9422240F5F1F4FBE
:101410000834110591F70E944B0726960FB6F894F1
:10142000DEBF0FBECDBFCF91DF911F910F91089509
:1014300087E495E06DEF70E041E40E94222487E4A8
:1014400095E06EEF70E04CE40E94222487E495E082
:101450006FEF70E041E30E94222400E010E0ADCF86
:10146000CF92DF92EF92FF920F931F93DF93CF9370
:10147000CDB7DEB7C650D1400FB6F894DEBF0FBE71
:10148000CDBF8C01FC0120A131A129313105C8F467
:101490002731310508F051C22231310509F454C316
:1014A0002331310540F42230310529F12E30310548
:1014B00009F074C32AC3C9014497029708F06EC3A8
:1014C000FDC12F31310550F42D31310508F0B8C27E
:1014D000C9014A97029708F061C36EC225363105EB
:1014E00009F492C02636310509F44FC02032310587
:1014F00009F054C3E9C2FE01EF59FF4F83E090E0C9
:1015000091A380A380E094E593838283DE01139608
:10151000E6EAF2E085E001900D928150E1F7DE010C
:10152000AB57BF4FFE01339685E001900D9281507D
:10153000E1F78E010F591F4F85E090E0FE01EB5F50
:10154000FE4F91838083C8010E94FB0583E090E0F9
:10155000F80191A380A380E094E593838283DE0168
:101560001896E1EAF2E085E001900D928150E1F7F2
:10157000DE01AB57BF4FFE01389685E001900D921A
:101580008150E1F785E090E0FFC2FC0186A165A1F2
:101590000E944D34A0E0B0E080937F0390938003DD
:1015A000A0938103B0938203F80180A567A10E94F4
:1015B0004D34A0E0B0E08093830390938403A09324
:1015C0008503B0938603F80182A561A50E944D347E
:1015D000A0E0B0E08093610190936201A093630169
:1015E000B0936401F80184A563A50E944D34A0E086
:1015F000B0E08093650190936601A0936701B0937A
:1016000068010E944B07CAC29E012F593F4F8BE6CB
:1016100090E0F90191A380A380E094E59383828315
:10162000AE01435D5F4F84E3FA0111928A95E9F7B9
:1016300080917F0390918003A0918103B0918203F8
:101640008DA7892F9A2FAB2FBB27A7FDBA958EA701
:101650008091830390918403A0918503B0918603C8
:101660008FA7892F9A2FAB2FBB27A7FDBA9588ABE1
:101670008091610190916201A0916301B091640138
:1016800089AB892F9A2FAB2FBB27A7FDBA958AABC1
:101690008091650190916601A0916701B091680108
:1016A0008BAB892F9A2FAB2FBB27A7FDBA958CAB9D
:1016B0008091870390918803A0918903B0918A0358
:1016C0008DAB892F9A2FAB2FBB27A7FDBA958EAB79
:1016D00080915D0190915E01A0915F01B0916001E8
:1016E0008FAB892F9A2FAB2FBB27A7FDBA9588AF59
:1016F00080911D0189AF80911E018AAF80911F01E9
:101700008BAF809120018CAF809121018DAF8091B2
:1017100022018EAF809123018FAF80912401FE01C1
:10172000E05CFF4F808380912501FE01EF5BFF4F5E
:10173000808380912601FE01EE5BFF4F80838091C4
:101740002701FE01ED5BFF4F808380912801FE01A0
:10175000EC5BFF4F808380912901FE01EB5BFF4F23
:10176000808380912A01FE01EA5BFF4F8083809194
:101770002B01FE01E95BFF4F808380912C01FE016C
:10178000E85BFF4F808380912D01FE01E75BFF4FF7
:10179000808380912E01FE01E65BFF4F8083809164
:1017A0002F01FE01E55BFF4F808380913001FE0138
:1017B000E45BFF4F808380913101FE01E35BFF4FCB
:1017C000808380913201FE01E25BFF4F8083809134
:1017D0003301FE01E15BFF4F808380913401FE0104
:1017E000E05BFF4F808380913501FE01EF5AFF4F90
:1017F000808380913601FE01EE5AFF4F80838091F5
:101800003701FE01ED5AFF4F808380913801FE01C0
:10181000EC5AFF4F808380913901FE01EB5AFF4F54
:10182000808380913A01FE01EA5AFF4F80838091C4
:101830003B01FE01E95AFF4F808380913C01FE018C
:10184000E85AFF4F808380917703FE01E75AFF4FEC
:10185000808380917803FE01E65AFF4F8083809158
:101860007903FE01E55AFF4F808380917A03FE01E0
:10187000E45AFF4F808380917B03FE01E35AFF4FC0
:10188000808380917C03FE01E25AFF4F8083809128
:101890007D03FE01E15AFF4F808380917E03FE01AC
:1018A000E05AFF4F8083D9019496FA0184E30190B6
:1018B0000D928150E1F784E390E066C12531310556
:1018C00089F4F80185A164A10E944D34A0E0B0E044
:1018D00080935D0190935E01A0935F01B0936001DE
:1018E0000E944B079E012F593F4F86E190E0F9017E
:1018F00091A380A380E094E59383828380915D012E
:10190000898380915D0190915E01A0915F01B0910A
:101910006001892F9A2FAB2FBB27A7FDBA958A8329
:1019200089819A8195A384A382E090E0FE01EB5F18
:10193000FE4F91838083C9012FC12831310541F5C4
:101940004DE1E42E41E0F42E34E2C32ED12CC80E3A
:10195000D91E00E010E0F6014081F701808199274F
:1019600087FD9095242F30E08217930731F0408354
:1019700087E495E0B8010E9422240F5F1F4F08946E
:10198000E11CF11C0894C11CD11C0032110519F78F
:10199000FE01EF59FF4F89E190E091A380A380E021
:1019A00094E593838283B496ADE1B1E080E20D903B
:1019B00001928150E1F785C02B31310559F527E7B8
:1019C000E22E23E0F22E0C5D1F4F90E2C92ED12CA7
:1019D0001CC0F8014081F7018081992787FD90950F
:1019E000242F30E08217930741F0408387E495E08D
:1019F000B601F80140810E9422240894E11CF11CE8
:101A00000F5F1F4F0894C11CD11CFFE7EF16F3E0D6
:101A1000FF06F9F6FE01EF59FF4F8CE190E091A32C
:101A200080A380E094E593838283B496A7E7B3E034
:101A300088E00D9001928150E1F788E090E0A4C029
:101A40002E31310559F58DE3E82E81E0F82EB4E210
:101A5000CB2ED12CC00ED11E08E210E01AC0F60128
:101A60004081F7018081992787FD9095242F30E0F0
:101A70008217930731F0408387E495E0B8010E9414
:101A800022240894E11CF11C0894C11CD11C0F5F96
:101A90001F4FFDE5EF16F1E0FF0609F7FE01EF59D4
:101AA000FF4F8FE190E091A380A380E094E59383C2
:101AB0008283B496ADE3B1E080E20D900192815053
:101AC000E1F780E290E060C0FE01EF59FF4F81E254
:101AD00090E091A380A380E094E593838283DE016C
:101AE0001D96E5E9F2E08CE001900D928150E1F75E
:101AF000DE01AB57BF4FFE013D968CE001900D9289
:101B00008150E1F78CE090E03FC0FE01EF59FF4FBC
:101B10008FE090E091A380A380E094E5938382839B
:101B2000DE015996E1E8F2E084E101900D928150E6
:101B3000E1F7DE01AB57BF4FFE01799684E10190DA
:101B40000D928150E1F71EC0FE01EF59FF4F83E176
:101B500090E091A380A380E094E593838283DE01EB
:101B60005996EDE6F2E084E101900D928150E1F7A3
:101B7000DE01AB57BF4FFE01799684E101900D92D3
:101B80008150E1F784E190E0FE01EB5FFE4F91832D
:101B90008083CE018F599F4F0E94FB05CA5FDE4FA5
:101BA0000FB6F894DEBF0FBECDBFCF91DF911F916E
:101BB0000F91FF90EF90DF90CF900895CF92DF923A
:101BC000EF92FF920F931F93DF93CF93CDB7DEB7C2
:101BD000C353D1400FB6F894DEBF0FBECDBF89EB23
:101BE00093E00E940114CE01019666EA73E00E9420
:101BF000141D8B819C819093AF038093AE038D81E4
:101C00009E81AF81B8858093B0039093B103A09378
:101C1000B203B093B30389859A85AB85BC85809365
:101C2000B4039093B503A093B603B093B7038D8527
:101C30008093B8038CEA93E00E94481A882321F12C
:101C4000EE24FF249EE0C92ED12CCC0EDD1E0BC04D
:101C50008CEA93E00E94F81AF601EE0DFF1D8083D6
:101C60000894E11CF11C8CEA93E00E94141B892B60
:101C700079F78E0102571F4FC601B701A8010E94D4
:101C80006303C8010E94300A8BE893E00E94951E0E
:101C9000892BC1F08EE0E82EF12CEC0EFD1E8BE8B6
:101CA00093E0B70140E850E00E94471E8E010257C2
:101CB0001F4FC70160E870E0A8010E946303C801DC
:101CC0000E94300A8BEA94E00E94DC18CD5CDE4F63
:101CD0000FB6F894DEBF0FBECDBFCF91DF911F913D
:101CE0000F91FF90EF90DF90CF900895FC01A081BD
:101CF000B1812D913C91F9010995089581E00895F4
:101D00000895CF92DF92EF92FF920F931F93CF939C
:101D1000DF93FC017A016901C385D485D28BC18B25
:101D200085859685948B838B87859089968B858B0B
:101D3000002349F108E611E0CB0168E671E00E945A
:101D40003538BC01C817D90778F4DE01A859BE4F51
:101D50009C012C1B3D0BCD01861B970B8217930713
:101D600090F4B28BA18B0FC08C179D0760F4CE014D
:101D7000861B970B0C1B1D0B060F171F0817190747
:101D800010F468597E4F708F678BF28EE18ED48E7F
:101D9000C38E81E086A3168E158E85A3DF91CF9129
:101DA0001F910F91FF90EF90DF90CF9008956F9269
:101DB0007F928F929F92AF92BF92CF92DF92EF92DB
:101DC000FF920F931F93CF93DF93F90158014701BF
:101DD0003601E759FE4F8081C82EDD242FEF30E019
:101DE000F901E41BF50BE759FE4F8081F901E81B6F
:101DF000F109309751F4F801D182C082F701D18204
:101E0000C082F301D182C082D1C0CB0168E671E00B
:101E10000E9435388C012E1B3F0B2C9DC0012D9D3F
:101E2000900D3C9D900D1124E92FFF27CCE3D0E0CD
:101E3000C8016CE370E00E9435386230710509F426
:101E400047C06330710540F46115710591F0613050
:101E5000710509F0A2C021C06430710509F46BC09E
:101E60006430710508F44CC06530710509F095C007
:101E70007BC07601C7018E1B9F0B9C01209FC00178
:101E8000219F900D309F900D11246CE370E00E9413
:101E90003538EB01CE0FDF1F19C096012E1B3F0B0B
:101EA000C8016CE370E00E943538C81BD90B2C9F29
:101EB000C0012D9F900D3C9F900D11246CE370E0AC
:101EC0000E9435387B01EE0EFF1EE601BF0165C0A2
:101ED000E6019E012E1B3F0BC8016CE370E00E94DF
:101EE0003538AC01249FC001259F900D349F900D83
:101EF00011246CE370E00E9435386E0F7F1F19C00B
:101F000096012E1B3F0BC8016CE370E00E94353830
:101F1000C81BD90B2C9FC0012D9F900D3C9F900D8D
:101F200011246CE370E00E943538EB01CE0FDF1F07
:101F3000B6017F0132C096012E1B3F0BC8016CE336
:101F400070E00E943538AC01249FC001259F900DA0
:101F5000349F900D11246CE370E00E9435387B01B2
:101F6000EE0EFF1EB60118C0760197012E1B3F0B27
:101F7000C8016CE370E00E943538C81BD90B2C9F58
:101F8000C0012D9F900D3C9F900D11246CE370E0DB
:101F90000E9435386E0F7F1FEF01F501F182E0825C
:101FA000F401D183C083F30171836083DF91CF910A
:101FB0001F910F91FF90EF90DF90CF90BF90AF9067
:101FC0009F908F907F906F900895CF92DF92EF92C5
:101FD000FF920F931F93CF93DF93EC01CB01E52F7B
:101FE000F22F132F68E671E00E94353821E0893620
:101FF000920710F088E691E09C878B87842F9E2FB4
:102000009C012F3F310519F010F02FEF30E03E8793
:102010002D878F2F912F9C012F3F310519F010F044
:102020002FEF30E0388B2F876B857C854D855E8563
:102030008E010B5F1F4FFE013796DE011996CE0110
:102040007F016D010E94D70E1EA2DF91CF911F91DB
:102050000F91FF90EF90DF90CF9008952F923F92D5
:102060004F925F926F927F928F929F92AF92BF92A8
:10207000CF92DF92EF92FF920F931F93DF93CF9354
:10208000CDB7DEB72E970FB6F894DEBF0FBECDBF2B
:102090009E878D87DC0195968C91959751966D91D1
:1020A0007C9152975D960D911C915E975796ED909D
:1020B000FC9058975F96CD90DC9090975396ED9159
:1020C000FC915497FE83ED8359962D913C915A973C
:1020D00038872F8355960D90BC91A02DBA87A9877C
:1020E000ED85FE85038CF48DE02DFC87EB8788233E
:1020F00009F4B1C080E090E00E9496353B014C01AC
:10210000B80180E090E00E9496351B012C01B701D8
:1021100080E090E00E9496359B01AC01C401B301C0
:102120000E9494347B018C01B60180E090E00E9413
:1021300096355B016C01C801B701A60195010E94AB
:10214000FD349B01AC01C201B1010E9491369B019B
:10215000AC01C401B3010E9494340E946A356983C2
:102160007A838B839C83E981FA81AD85BE851C9639
:10217000FC93EE931B972D813E81B90180E090E0A6
:102180000E9496357B018C01AF81B885BD0180E04E
:1021900090E00E9496359B01AC01C801B7010E94F6
:1021A0009434A60195010E94FD349B01AC01C2014B
:1021B000B1010E9491369B01AC01C801B7010E9498
:1021C00094340E946A353B014C01ED85FE8576878B
:1021D000658729853A85B90180E090E00E949635AF
:1021E0007B018C01AB85BC85BD0180E090E00E9445
:1021F00096359B01AC01C801B7010E949434A60139
:1022000095010E94FD349B01AC01C201B1010E9405
:1022100091369B01AC01C801B7010E9494340E9421
:102220006A358B019C01ED85FE85708B67877F0188
:1022300087E090E0E80EF91EDF011996CF01698171
:102240007A81A30198013596FE87ED878F016D0194
:102250000E94D70E97C080E090E00E9496353B0127
:102260004C01B80180E090E00E9496351B012C01E2
:10227000B70180E090E00E9496359B01AC01C4015B
:10228000B3010E9494347B018C01B60180E090E0A0
:102290000E9496355B016C01C801B701A60195014A
:1022A0000E94FD349B01AC01C201B1010E94913634
:1022B0009B01AC01C401B3010E9494340E946A35B1
:1022C000AD85BE8516967C936E931597ED81FE8144
:1022D000BF0180E090E00E9496357B018C012F8148
:1022E0003885B90180E090E00E9496359B01AC01F1
:1022F000C801B7010E949434A60195010E94FD34E3
:102300009B01AC01C201B1010E9491369B01AC015D
:10231000C801B7010E9494340E946A35AD85BE851C
:1023200018967C936E931797E985FA85BF0180E034
:1023300090E00E9496357B018C012B853C85B9018C
:1023400080E090E00E9496359B01AC01C801B70186
:102350000E949434A60195010E94FD349B01AC01BA
:10236000C201B1010E9491369B01AC01C801B701C5
:102370000E9494340E946A35AD85BE851A967C937E
:102380006E9319972E960FB6F894DEBF0FBECDBF91
:10239000CF91DF911F910F91FF90EF90DF90CF9041
:1023A000BF90AF909F908F907F906F905F904F9075
:1023B0003F902F900895FC01239A88E0828385E264
:1023C00090E0948383830895DF93CF9300D00F929E
:1023D000CDB7DEB7DC01AB01ED91FC910680F78152
:1023E000E02D19821A821B82BE016F5F7F4F20E0B1
:1023F00009950F900F900F90CF91DF910895549A07
:10240000089565B900C000C0001427FF45B900C099
:1024100000C0001445B900C0089565B900C000C0EF
:10242000001427FF45B900C000C0001445B900C022
:1024300000C00014089565B900C000C0001425FF55
:1024400045B900C000C0001445B900C000C0001468
:102450000895FF920F931F93352FF22ED801F801A4
:102460005BB150611BB11F7E1BB9662319F460E09C
:1024700070E003C0BC016D5F7F4F11962C911197E6
:102480000F2D209F212D11240C91A42FB32F80E01C
:1024900030E0982F482F5BB9001431E03A95F1F7FE
:1024A00027FF1BB94081002700C01BB9F0FC040FB7
:1024B000001431E03A95F1F75BB9001431E03A9538
:1024C000F1F726FF1BB907958894F1FC040F00145F
:1024D0001BB907958894001431E03A95F1F75BB980
:1024E000001431E03A95F1F725FF1BB9F2FC040F17
:1024F0000795889400141BB9F3FC040F001431E015
:102500003A95F1F75BB9001431E03A95F1F724FF01
:102510001BB907958894F4FC040F00141BB90795A8
:102520008894001431E03A95F1F75BB9001431E07A
:102530003A95F1F723FF1BB9F5FC040F0795889432
:1025400000141BB9F6FC040F001431E03A95F1F7C2
:102550005BB9001431E03A95F1F722FF1BB90795FA
:102560008894F7FC040F00141BB907958894001495
:1025700031E03A95F1F75BB9001431E03A95F1F7A3
:1025800021FF1BB900C031E03A95F1F71BB932E0E9
:102590003A95F1F75BB9001431E03A95F1F720FF75
:1025A0001BB900C031E03A95F1F71BB932E03A951A
:1025B000F1F75BB9001431E03A95F1F707FF1BB969
:1025C0004281992700C01BB9F0FC940F001431E040
:1025D0003A95F1F75BB9001431E03A95F1F706FF4F
:1025E0001BB997958894F1FC940F00141BB997952B
:1025F0008894001431E03A95F1F75BB9001431E0AA
:102600003A95F1F705FF1BB9F2FC940F9795889462
:1026100000141BB9F3FC940F001431E03A95F1F764
:102620005BB9001431E03A95F1F704FF1BB99795B7
:102630008894F4FC940F00141BB9979588940014A7
:1026400031E03A95F1F75BB9001431E03A95F1F7D2
:1026500003FF1BB9F5FC940F9795889400141BB9E0
:10266000F6FC940F001431E03A95F1F75BB90014D1
:1026700031E03A95F1F702FF1BB997958894F7FC82
:10268000940F00141BB997958894001431E03A9583
:10269000F1F75BB9001431E03A95F1F701FF1BB98E
:1026A00000C031E03A95F1F71BB932E03A95F1F705
:1026B0005BB9001431E03A95F1F700FF1BB9E60F62
:1026C000F71F31E03A95F1F71BB932E03A95F1F78F
:1026D0005BB9001431E03A95F1F797FF1BB94181DE
:1026E000222700C01BB9F0FC240F001431E03A95FA
:1026F000F1F75BB9001431E03A95F1F796FF1BB999
:1027000027958894F1FC240F00141BB92795889411
:10271000001431E03A95F1F75BB9001431E03A95D5
:10272000F1F795FF1BB9F2FC240F2795889400144C
:102730001BB9F3FC240F001431E03A95F1F75BB9B3
:10274000001431E03A95F1F794FF1BB9279588946E
:10275000F4FC240F00141BB927958894001431E071
:102760003A95F1F75BB9001431E03A95F1F793FF30
:102770001BB9F5FC240F2795889400141BB9F6FCAF
:10278000240F001431E03A95F1F75BB9001431E001
:102790003A95F1F792FF1BB927958894F7FC240F1F
:1027A00000141BB927958894001431E03A95F1F78D
:1027B0005BB9001431E03A95F1F791FF1BB900C005
:1027C00031E03A95F1F71BB932E03A95F1F75BB990
:1027D000001431E03A95F1F790FF1BB9119739F0E9
:1027E00000C01BB9001431E03A95F1F754CE001443
:1027F0001BB932E03A95F1F71F910F91FF900895C0
:1028000008956F927F928F929F92AF92BF92CF92D4
:10281000DF92EF92FF920F931F93DF93CF9300D03D
:102820000F92CDB7DEB73C010E9470327B018C0164
:10283000F30186A18823F1F187A190A5A1A5B2A5F6
:10284000A8019701281B390B4A0B5B0B81A192A1B0
:10285000A0E0B0E0281739074A075B0708F4F5C085
:10286000858D968D0196968F858FC3010E942E10BF
:10287000F301258D368D878D90A128173907A0F09B
:1028800016A285A1882381F08789908D68E671E082
:102890000E94353894878387818D928D96878587AE
:1028A000838D948D908B8787F301E7A2F0A601A713
:1028B00012A7CBC0F301608171816115710509F424
:1028C000C4C087A190A5A1A5B2A5A8019701281B06
:1028D000390B4A0B5B0B83A194A1A0E0B0E0281751
:1028E00039074A075B0708F4B0C0E7A2F0A601A7C2
:1028F00012A763307105B1F16430710544F46130A1
:10290000710581F06230710509F09FC01FC065300C
:102910007105D1F16530710574F16630710509F00A
:1029200094C05CC060E070E080E090E028E631E0B8
:1029300040E050E00E9476347B018C01F301458534
:10294000568527853089C301B70146C0F301458507
:10295000568527853089C30168E671E000E00E9452
:10296000810E73C06FE471E080E090E020E931E017
:1029700040E050E011C060EA70E080E090E023E1C8
:1029800031E040E050E008C068E470E080E090E0B2
:1029900020EA30E040E050E00E9476344B015C01D8
:1029A0006EEB70E080E090E02FEF30E040E050E030
:1029B0000E9476346B017C0168E770E080E090E073
:1029C0002FEF30E040E050E00E9476348B019C0114
:1029D000C301B401A601980101E0C1CF69E571E02E
:1029E00080E090E023EB31E040E050E00E9476345C
:1029F0004B015C016EEB70E080E090E02FEF30E087
:102A000040E050E00E9476346B017C0168E770E0A2
:102A100080E090E02FEF30E040E050E00E9476341C
:102A20008B019C01C301B401A60198010E94E50F2E
:102A30006AE070E080E090E024EF31E040E050E0B8
:102A40000E947634F30174A363A3F3016581768158
:102A500082810E940533F3016781708583810E9422
:102A60000533F3016185728584810E940533F3018A
:102A700097812185858189839A832B8380E393E0E5
:102A8000BE016F5F7F4F409172030E94DE020F9084
:102A90000F900F90CF91DF911F910F91FF90EF90CA
:102AA000DF90CF90BF90AF909F908F907F906F906E
:102AB0000895CF92DF92EF92FF920F931F93CF93DF
:102AC000DF93EC018B017A01690180913F06882335
:102AD000C1F48FE396E00E94D330892B91F01092DD
:102AE00012061092130610921406109215068FEA21
:102AF00092E090930E0680930D068FE396E00E947D
:102B0000DD30CE016DE076E0A801970186010E94DC
:102B10008902DF91CF911F910F91FF90EF90DF908D
:102B2000CF9008950F931F938C01FC0111821082A6
:102B3000628343832483168215821086178212864D
:102B400011861486138616861586108A178688ECD9
:102B500090E090A3878F82E390E092A381A388EE18
:102B600093E094A383A316A20E947032F80167A396
:102B700070A781A792A70AEE13E080916B02909153
:102B80006C02B8014CE350E020E030E00E9459159F
:102B900086E090E00E94E130792FE82FF92F81EC58
:102BA00092E0918380831282138214821582E093D3
:102BB0009E0470939F0480E393E06E2FA8012CE3A2
:102BC00030E000E010E00E9489021F910F9108950B
:102BD000CF93DF93EC010E947E329B01AC01888190
:102BE0009981AA81BB81281B390B4A0B5B0B2233CD
:102BF0003105410551057CF3DF91CF9108954F9246
:102C00005F927F928F929F92AF92BF92CF92DF920C
:102C1000EF92FF920F931F93CF93DF932C01162F08
:102C2000072F4A01722E05960E94E815F894812F0D
:102C3000902FEC015401AA0CBB1CA80CB91CAC0EC3
:102C4000BD1EC5B028E0C22A05B1077F05B9E880DE
:102C50003E2D272D329F312DE32E89C015E085E2D0
:102C600090E06C2D402F2E2D0E940112EE0C115081
:102C7000B1F7001485E290E06C2D402F2E2D0E94BC
:102C80000D120014C5B800C000C00014E6FE05B95E
:102C900000C000C0001405B9F9803F2D272D329FD8
:102CA000312DF32E85E290E06C2D402F2E2D0E94C9
:102CB0001B1215E085E290E06C2D402F2F2D0E9415
:102CC0000112FF0C1150B1F7001485E290E06C2D59
:102CD000402F2F2D0E940D120014C5B800C000C057
:102CE0000014F6FE05B900C000C0001405B9DA8072
:102CF0003D2D272D329F312DD32E85E290E06C2D76
:102D0000402F2F2D0E941B1215E085E290E06C2DC4
:102D1000402F2D2D0E940112DD0C1150B1F700142F
:102D2000C5B800C000C00014D7FE05B900C000C07F
:102D3000001405B900C000C02396C5B800C000C08B
:102D40000014D6FE05B900C000C0001405B9E88023
:102D50003E2D272D329F312DE32EC5B800C000C077
:102D60000014D5FE05B900C000C0001405B9CA158D
:102D7000DB0508F473CF1124E0900806F0900906F3
:102D800000910A0610910B06B401882777FD809503
:102D9000982F28EC31E040E050E00E94163820E106
:102DA00030E040E050E00E946B38CA01B90128EEE3
:102DB00033E040E050E00E946B38E20EF31E041F47
:102DC000151FE0920806F092090600930A06109378
:102DD0000B0678940E947E32F201658376838783A6
:102DE0009087DF91CF911F910F91FF90EF90DF902F
:102DF000CF90BF90AF909F908F907F905F904F90BB
:102E000008952F923F925F926F927F928F929F923E
:102E1000AF92BF92CF92DF92EF92FF920F931F93E8
:102E2000CF93DF931C01EB013A01522E05960E94CD
:102E3000E815F8945301AA0CBB1CA60CB71CAC0EE9
:102E4000BD1EC5B028E0C22A05B1077F05B9E880DC
:102E50003E2D252D329F312DE32E4E018FC015E0E2
:102E600085E290E06C2D402F2E2D0E940112EE0C79
:102E70001150B1F7001485E290E06C2D402F2E2DFB
:102E80000E940D120014C5B800C000C00014E6FE78
:102E900005B900C000C0001405B9F98000143F2D29
:102EA000252D329F312DF32E85E290E06C2D402FA1
:102EB0002E2D0E941B1215E085E290E06C2D402F14
:102EC0002F2D0E940112FF0C1150B1F7001485E262
:102ED00090E06C2D402F2F2D0E940D120014C5B8CC
:102EE00000C000C00014F6FE05B900C000C0001408
:102EF00005B9DA8000143D2D252D329F312DD32EBA
:102F000085E290E06C2D402F2F2D0E941B1215E0C2
:102F100085E290E06C2D402F2D2D0E940112DD0CDA
:102F20001150B1F70014C5B800C000C00014D7FE9E
:102F300005B900C000C0001405B900C000C083E09E
:102F400090E0880E991EC5B800C000C00014D6FEDF
:102F500005B900C000C0001405B9E88000142E2D8A
:102F6000352D239F212DE22EC5B800C000C00014CE
:102F7000D5FE05B900C000C0001405B98A149B0431
:102F800008F46DCF1124E0900806F0900906009136
:102F90000A0610910B06B301882777FD8095982FBC
:102FA00028EC31E040E050E00E94163820E130E0AB
:102FB00040E050E00E946B38CA01B90128EE33E0CE
:102FC00040E050E00E946B38E20EF31E041F151F14
:102FD000E0920806F092090600930A0610930B0689
:102FE00078940E947E32F10165837683878390878F
:102FF000DF91CF911F910F91FF90EF90DF90CF90D5
:10300000BF90AF909F908F907F906F905F903F9018
:103010002F9008954F925F926F927F928F929F921E
:10302000AF92BF92CF92DF92EF92FF920F931F93D6
:103030002C014B01742E5901602E870102960E94CB
:10304000E815F894C401672DA501262D0E942912C8
:10305000E0900806F090090600910A0610910B0610
:10306000CC24B7FCC094DC2CC601B50128EC31E0BF
:1030700040E050E00E94163820E130E040E050E0AF
:103080000E946B38CA01B90128EE33E040E050E0FD
:103090000E946B38E20EF31E041F151FE092080613
:1030A000F092090600930A0610930B0678940E948A
:1030B0007E32F20162837383848395831F910F9123
:1030C000FF90EF90DF90CF90BF90AF909F908F9048
:1030D0007F906F905F904F900895EF92FF920F93C3
:1030E0007B01FA01022F60E070E041E09F010E9445
:1030F0000A180F91FF90EF900895EF92FF920F93AF
:103100007B01FA01022F60E070E040E09F010E9425
:103110000A180F91FF90EF900895EF92FF920F938E
:103120009B0160E070E040E000E050EAE52E54E0F2
:10313000F52E0E940A180F91FF90EF900895DB0181
:10314000FC012DE233E03183208312962D913D91D5
:103150004D915C9115972283338344835583089561
:103160000F9383EB94E060E040E020E000E00E94F9
:103170003F308BEA94E00E94BA300F910895EF92AD
:10318000FF920F931F93182F092FE82EF92EC701D6
:103190000E94BA3082E090E0E80EF91E8FE090E0E5
:1031A000B70144E050E00E942A23812F902F1F9105
:1031B0000F91FF90EF900895EF92FF920F931F935E
:1031C000DF93CF93CDB7DEB768970FB6F894DEBF25
:1031D0000FBECDBF8C01FC0186819781009719F449
:1031E000EE24FF244BC00E94DA297C018230910535
:1031F00029F084E0E816F10409F040C0F801668186
:103200007781CE0101960E9484248FE090E0BE0178
:103210006D5F7F4F44E050E00E940722F801668115
:103220007781CE0107960E946E2481E090E0BE0176
:10323000675F7F4F44E050E00E940722F8016681FB
:103240007781CE010D960E94792485E090E0BE0141
:10325000615F7F4F44E050E00E940722F8016681E1
:103260007781CE0143960E9463248D899E89AF8920
:10327000B88DF80182839383A483B583C7016896D0
:103280000FB6F894DEBF0FBECDBFCF91DF911F9177
:103290000F91FF90EF900895CF92DF92EF92FF92FF
:1032A0000F931F93DF93CF93CDB7DEB76E970FB613
:1032B000F894DEBF0FBECDBF6C017B018091B904D5
:1032C000882371F489EB94E00E94D330892B41F07C
:1032D00088E095E00E94121F89EB94E00E94DD30A7
:1032E00081EC94E0F6019783868387E395E00E9462
:1032F000E92389E090E0B70146E050E00E94072210
:10330000CE01019660E040E020E000E00E943F3006
:103310008FE090E0BE016D5F7F4F44E050E00E947F
:103320000722F60186819781B70120E63AEE40E058
:1033300050E0F0EAEF2EFFE0FF2E012D112D0E944C
:10334000CE2A8C018130910509F040C0F6016681DA
:103350007781CE0107960E9484248FE090E0BE0121
:10336000675F7F4F44E050E00E940722F6016681CC
:103370007781CE010D960E946E2481E090E0BE011F
:10338000615F7F4F44E050E00E940722F6016681B2
:103390007781CE0143960E94792485E090E0BE01BA
:1033A0006B5E7F4F44E050E00E940722F601668189
:1033B0007781CE0149960E9463248B8D9C8DAD8DC3
:1033C000BE8DF60182839383A483B583C8016E9674
:1033D0000FB6F894DEBF0FBECDBFCF91DF911F9126
:1033E0000F91FF90EF90DF90CF900895FC01138232
:1033F000128288EE93E0A0E0B0E084839583A683F8
:10340000B78383ED92E09183808384E0848708957D
:10341000FC011382128288EE93E0A0E0B0E0848386
:103420009583A683B78383ED92E09183808364873D
:103430000895DF93CF930F92CDB7DEB7FC01698378
:10344000A081B18112962D913C911397BE016F5FBF
:103450007F4F41E050E0F90109950F90CF91DF9146
:103460000895CF93DF93EC0107C0E881F9810680CE
:10347000F781E02DCE010995E881F9810480F5817D
:10348000E02DCE010995892B81F7DF91CF91089529
:1034900020E0FC018485843009F021E0822F08952A
:1034A0000F9383E295E060E040E020E000E00E94BE
:1034B0003F300F910895FC018485843011F480E041
:1034C0000895982F80E08D5F9B4F0E942E220895D3
:1034D000CF93DF93EC018C85843011F480E019C028
:1034E000CE010E945B1A843191F0882381F08831EB
:1034F00071F08C3151F4E881F9810480F581E02D7F
:10350000CE01099520E0892B19F021E001C020E0CF
:10351000822FDF91CF910895EF92FF920F931F9327
:10352000CF93DF93EC018C85843089F10E94E81FF2
:103530000E9470327B018C01CE010E945B1A8823AD
:1035400001F10E9470326E197F09800B910B685E49
:10355000734080409040A8F461E070E080E090E02B
:103560000E94A432E9CF8C850E944320EC85F0E0D4
:10357000EE0FFF1FED55FB4F1182108284E08C8708
:1035800006C0CE010E945B1A882381F3ECCFDF9145
:10359000CF911F910F91FF90EF9008950F931F937C
:1035A000DF93CF930F92CDB7DEB78C01DC01ED91A5
:1035B000FC910480F581E02D0995892B19F42FEFFA
:1035C0003FEF0AC0F8018485BE016F5F7F4F0E9404
:1035D0009E218981282F30E0C9010F90CF91DF9182
:1035E0001F910F910895FC0184850E94AD210895DB
:1035F000DF93CF930F92CDB7DEB7FC018485BE0178
:103600006F5F7F4F41E050E00E94AD211816190610
:103610001CF02FEF3FEF03C08981282F30E0C90154
:103620000F90CF91DF910895FC016485643019F407
:1036300020E030E005C087E395E00E94DB229C019A
:10364000C90108950F931F93CF93DF938C01EA0173
:10365000FC018485843019F481E090E007C00E9469
:103660004721892B39F481E090E0F801938382832C
:10367000C0E0D0E0CE01DF91CF911F910F9108956E
:10368000AF92BF92CF92DF92EF92FF920F931F9370
:10369000CF93DF937C016B015A01FC018485843058
:1036A00009F056C0C0E0D0E003E014E0C8010E9479
:1036B0002E22882321F0883111F08C3119F4F70182
:1036C000C48706C0219600501F4FC430D10571F742
:1036D000F70124852430E1F18091690290916A021A
:1036E000019690936A0280936902892B31F480E0FD
:1036F00094E090936A02809369024091690250912C
:103700006A02822F61E020E00E94782082E090E04F
:10371000C80ED91EF7018485B601A5010E94E120DB
:1037200009C061E070E080E090E00E94A432C7012F
:103730000E945B1A882321F484E0F701848708C083
:10374000C7010E945B1A873161F721E030E002C0B7
:1037500020E030E0C901DF91CF911F910F91FF90E0
:10376000EF90DF90CF90BF90AF9008956F927F92CF
:103770008F929F92AF92BF92CF92DF92EF92FF9281
:103780000F931F93DF93CF93CDB7DEB7E5970FB6B7
:10379000F894DEBF0FBECDBF4C015B013A0193E14F
:1037A000E92EF12CEC0EFD1EC7010E94BA30CE01AD
:1037B0004B960E94121F6E010894C11CD11CC601B9
:1037C0000E94BA308E01095F1F4FC8016BEA74E096
:1037D0000E949F18C701B8010E94192BC701B501AB
:1037E000A6010E94982D9C0181309105C9F4D40155
:1037F000ED91FC910484F585E02D8DE293E09E87A8
:103800008D878B819C81AD81BE818F87988BA98BA1
:10381000BA8BC401BE01635F7F4FA30109959C0170
:10382000C901E5960FB6F894DEBF0FBECDBFCF91AC
:10383000DF911F910F91FF90EF90DF90CF90BF909D
:10384000AF909F908F907F906F900895FC011382AE
:1038500012828FEE92E09183808375836483089552
:10386000DF93CF930F92CDB7DEB7FC016983A081C0
:10387000B18112962D913C911397BE016F5F7F4FDE
:1038800041E050E0F90109950F90CF91DF91089543
:103890000F9389E295E060E040E020E000E00E94C4
:1038A0003F300F9108958F929F92BF92CF92DF92F7
:1038B000EF92FF920F931F93DF93CF93CDB7DEB7B5
:1038C0002D970FB6F894DEBF0FBECDBF7C0103EA83
:1038D00014E088249924BB246E010894C11CD11CD7
:1038E000C6016B2D0E94081AD8012D913C91F70159
:1038F0008481958128173907B1F4C6010E945B1AAB
:10390000843121F481E0882E912C0DC0C6010E94E3
:103910005B1A8C3141F4C6010E94141B892B19F4E7
:10392000C6010E948C1AB3940E5F1F4FF4E0BF16BD
:10393000B9F6892841F4D701ED91FC910480F58115
:10394000E02DC70109952D960FB6F894DEBF0FBE86
:10395000CDBFCF91DF911F910F91FF90EF90DF903E
:10396000CF90BF909F908F9008954F925F926F92EB
:103970007F928F929F92AF92BF92DF92EF92FF92CF
:103980000F931F93DF93CF93CDB7DEB72D970FB66D
:10399000F894DEBF0FBECDBF4C012B013A010E944F
:1039A000531C93EAE92E94E0F92E00E010E0DD24A8
:1039B0005E010894A11CB11CC5016D2D0E94081A5E
:1039C000F70120813181F40184819581281739071D
:1039D00061F4C5010E945B1A873139F4C501B20157
:1039E000A3010E94221B080F191FD39482E090E0CC
:1039F000E80EF91E94E0D916F9F6C8012D960FB617
:103A0000F894DEBF0FBECDBFCF91DF911F910F9114
:103A1000FF90EF90DF90BF90AF909F908F907F903E
:103A20006F905F904F9008959F92AF92BF92CF9208
:103A3000DF92EF92FF920F931F93DF93CF93CDB757
:103A4000DEB72D970FB6F894DEBF0FBECDBFC82EE0
:103A5000992E5B01CB010E94531C03EA14E0DD2484
:103A60007E010894E11CF11CC7016D2D0E94081A0B
:103A7000F80120813181F50184819581281739076A
:103A800061F5C7010E945B1A873129F0C7010E94C6
:103A90005B1A8C3111F5C7010E94141B892BE9F0C8
:103AA000EC2DF92D8B819C81938382838D819E8166
:103AB000AF81B88584839583A683B78389859A85EA
:103AC000AB85BC8580879187A287B38783ED92E021
:103AD000918380838D8584870BC0D3940E5F1F4FA5
:103AE000F4E0DF1609F68C2D992D64E00E94081A87
:103AF0008C2D992D2D960FB6F894DEBF0FBECDBF3D
:103B0000CF91DF911F910F91FF90EF90DF90CF90B9
:103B1000BF90AF909F900895CF92DF92EF92FF9267
:103B20000F931F93DF93CF93CDB7DEB72D970FB6CB
:103B3000F894DEBF0FBECDBF6C0100E010E07E0147
:103B40000894E11CF11CC701602F0E94081AC701EC
:103B50000E945B1A8823B1F4F60144815581802FBD
:103B600061E020E00E947820802F0E94F91F000F62
:103B7000111F0D551B4FF60184819581F80191832A
:103B8000808305C00F5F1F4F04301105E1F62D96AD
:103B90000FB6F894DEBF0FBECDBFCF91DF911F915E
:103BA0000F91FF90EF90DF90CF900895DC01ED91A1
:103BB000FC91008CF18DE02D09950895DB01FC014D
:103BC0002DE233E03183208351962D913D914D912B
:103BD0005C91549722833383448355830895FC0179
:103BE000858996890895FC01818D928D0895DF93D2
:103BF000CF930F92CDB7DEB7FC016983A081B1816D
:103C000012962D913C911397BE016F5F7F4F41E05B
:103C100050E0F90109950F90CF91DF910895CF936E
:103C2000DF93EC0107C0E881F9810680F781E02D80
:103C3000CE010995898D9A8D892BA9F7DF91CF91B6
:103C400008950F938FE295E060E040E020E000E00F
:103C50000E943F300F910895DF93CF930F92CDB71D
:103C6000DEB7FC01818D928D892B19F42FEF3FEF88
:103C700009C08485BE016F5F7F4F0E949E218981AC
:103C8000282F30E0C9010F90CF91DF910895CF9395
:103C9000DF93EC019A01498D5A8D41155105A1F030
:103CA0002417350710F08C8502C08C85A9010E946D
:103CB000AD219C01181619063CF4898D9A8D821B42
:103CC000930B9A8F898F02C02FEF3FEFC901DF91CD
:103CD000CF9108950F931F93DF93CF930F92CDB79A
:103CE000DEB78C01FC01818D928D892BA9F0848532
:103CF000BE016F5F7F4F41E050E00E94AD2118167A
:103D0000190654F4F801818D928D0197928F818F5D
:103D10008981282F30E002C02FEF3FEFC9010F90BB
:103D2000CF91DF911F910F910895EF92FF920F9322
:103D30001F93DF93CF93CDB7DEB728970FB6F894D4
:103D4000DEBF0FBECDBF8C01DC01ED91FC91028482
:103D5000F385E02D099587E395E0F80164850E94DD
:103D6000DB22892B19F420E030E025C0D8011C9615
:103D70008C917E010894E11CF11CB70148E050E0F1
:103D80000E94AD219C0118161906ACF4C8010F96CB
:103D9000B7010E949C309D8180E02E81820F911D91
:103DA000F801968B858B9F8180E02885820F911D7D
:103DB000928F818F9C01C90128960FB6F894DEBFBF
:103DC0000FBECDBFCF91DF911F910F91FF90EF906C
:103DD00008950F931F938C01FB019A01DC01579604
:103DE0006D917C9158971C968C91AF010E94172180
:103DF0009C01F8018789908D820F931F908F878B8C
:103E0000C9011F910F910895FC0184850E9417201C
:103E10000895FC01108E178A6E5F7F4F84850E9483
:103E2000BB200895FC011382128288EE93E0A0E08B
:103E3000B0E084839583A683B78389EF92E0918372
:103E4000808384E08487CF010F960E94BA30089562
:103E50006F927F928F929F92AF92BF92CF92DF929A
:103E6000EF92FF920F931F93DF93CF93CDB7DEB7FF
:103E7000E5970FB6F894DEBF0FBECDBF4C015B01D6
:103E80003A0183E1E82EF12CEC0EFD1EC7010E94E1
:103E9000BA30CE014B960E94121F6E010894C11CCD
:103EA000D11CC6010E94BA308E01095F1F4FC801A4
:103EB0006BEA74E00E949F18C701B8010E94192B99
:103EC000C701B501A6010E94982D9C018130910582
:103ED000C9F4D401ED91FC910088F189E02D8DE2C7
:103EE00093E09E878D878B819C81AD81BE818F877A
:103EF000988BA98BBA8BC401BE01635F7F4FA3016E
:103F000009959C01C901E5960FB6F894DEBF0FBE76
:103F1000CDBFCF91DF911F910F91FF90EF90DF9078
:103F2000CF90BF90AF909F908F907F906F900895AB
:103F3000CF93DF93EC018C85843061F00E944320A5
:103F4000EC85F0E0EE0FFF1FED55FB4F1182108264
:103F500084E08C87DF91CF910895CF92DF92EF922A
:103F6000FF920F931F93CF93DF937C016B01FC01B2
:103F70008485843019F5C0E0D0E003E014E0C80186
:103F80000E942E22882311F0883119F4F701C4878A
:103F900006C0219600501F4FC430D10581F7F701AC
:103FA0008485843059F0D686C586128E118E62E0E3
:103FB000A60120E00E94782081E001C080E0DF912E
:103FC000CF911F910F91FF90EF90DF90CF900895C8
:103FD000682F87E395E048E050E00E94D7230895DA
:103FE00090E00496982F8827860F971F0E942E2214
:103FF00008951F93182F63E070E00E94F01F833133
:1040000011F080E008C087E395E0612F42E050E0C6
:104010000E94D72381E01F91089590E00496982F85
:104020008827860F971F642F0E94ED2108951F9304
:10403000182F87E395E0612F40E250E00E94D723DC
:1040400010C0812F62E070E00E94F01F83FF09C062
:10405000812F62E070E048E10E940D2020E030E016
:104060000FC0812F62E070E00E94F01F84FFE9CF53
:10407000812F62E070E040E10E940D2021E030E0FD
:10408000C9011F9108951F93182F87E395E0612FB1
:1040900040E150E00E94D723812F62E070E04FEFB3
:1040A0000E940D201F9108950F931F93182F062F24
:1040B000472F60E170E00E940D20812F61E170E0E8
:1040C000402F0E940D201F910F9108950F931F9371
:1040D000182F062F472F64E070E00E940D20812FDB
:1040E00065E070E0402F0E940D201F910F91089510
:1040F000FF920F931F93CF93DF93082FF62EEA01C1
:10410000122F862F8150853010F080E024C0802F40
:104110000E9443201F29802F60E070E0412F0E9401
:104120000D20209719F0802FBE010BC0609135053E
:10413000709136056F5F7F4F70933605609335053C
:10414000802F0E94662087E395E0602F41E050E0D9
:104150000E94D72381E0DF91CF911F910F91FF90B3
:10416000089590E0982F8827845F9B4F44E050E0AB
:104170000E94072208951F93CF93DF93182FFB010E
:10418000EA018081882349F48181882331F4828186
:10419000882319F48381882369F0209759F0812FAF
:1041A000BF010E94B120812FBE010E94542021E056
:1041B00030E002C020E030E0C901DF91CF911F91D3
:1041C00008951F93CF93DF93182FFB01EA0180819D
:1041D0008F3F51F481818F3F91F482818F3F79F439
:1041E00083818F3F61F41EC0882349F48181882335
:1041F00031F48281882319F48381882399F02097F0
:1042000089F0812FBF010E94B120812FBE010E9441
:10421000542087E395E0612F44E050E00E94D723CB
:1042200081E001C080E0DF91CF911F910895AF92AE
:10423000BF92DF92EF92FF920F931F93CF93DF9382
:10424000D82EEB015A01890187E395E06D2D0E947C
:104250000E238017910710F0780106C087E395E0E0
:104260006D2D0E940E237C0187E395E06D2DAE013C
:10427000950187010E944722C701DF91CF911F91CD
:104280000F91FF90EF90DF90BF90AF900895CF9285
:10429000DF92EF92FF921F93CF93DF93182F6B0162
:1042A000EA0188E04130580710F0C0E0D8E087E329
:1042B00095E0612F0E940E237C01812F63E070E066
:1042C0000E94F01F873129F08C3119F0C0E0D0E056
:1042D00003C0EC16FD0658F387E395E0612FA601B5
:1042E0009E010E94B82287E395E0612F40E250E0F2
:1042F0000E94D7230DC0812F63E070E00E94F01F61
:10430000882331F4812F0E944320C0E0D0E00DC00B
:10431000812F62E070E00E94F01F84FFECCF812FBC
:1043200062E070E040E10E940D20CE01DF91CF916C
:104330001F91FF90EF90DF90CF9008950F93282F5B
:10434000AB0187E395E0622F21E030E001E00E94BD
:104350008C2381E090E00F910895CF92DF92FF923D
:104360000F931F93CF93DF93F82E6B018A0187E39E
:1043700095E06F2D0E94DB22EC01009761F48F2DF8
:1043800063E070E00E94F01F8431D9F08823C9F007
:104390008C31B9F01FC0081719070CF4E8011C167E
:1043A0001D067CF487E395E06F2DA6019E0100E0D9
:1043B0000E948C2387E395E06F2D40E450E00E943B
:1043C000D723CE01DF91CF911F910F91FF90DF9006
:1043D000CF900895CFEFDFEFF4CF282F2A9880EF0A
:1043E0008EBD0DB407FEFDCF8EB59EBD0DB407FE8C
:1043F000FDCF8EB52EBD0DB407FEFDCF8EB56EBDC3
:104400000DB407FEFDCF8EB52A9A81E00895DC0138
:1044100020E030E090EF1DC02A989EBD0DB407FE4D
:10442000FDCF8EB5BEBD0DB407FEFDCF8EB5AEBDC2
:104430000DB407FEFDCF8EB5FB01E20FF31F8081A7
:104440008EBD0DB407FEFDCF11968EB52A9A2F5F53
:104450003F4F2417350700F3CA010895282F2A98E3
:104460008FE08EBD0DB407FEFDCF8EB59EBD0DB4A1
:1044700007FEFDCF8EB52EBD0DB407FEFDCF8EB568
:104480001EBC0DB407FEFDCF8EB52A9A08957F920B
:104490008F929F92AF92BF92CF92DF92EF92FF9254
:1044A0000F931F93CF93DF936C01762E7A0149010E
:1044B0005801862F64E270E00E94F01F182F872DAC
:1044C00065E270E00E94F01FC82FD0E0912F80E0DD
:1044D000C82BD92BCE0DDF1DAE015770872D90E074
:1044E000880F991FC80ED91EF60120813181240F33
:1044F000351FCA018A0D9B1D8150984098F000E03D
:1045000018E0041B150BC901B401A8010E94072281
:10451000A501401B510BF60180819181080D191DE9
:10452000B80103C0C901B401A5010E9407227E01A0
:10453000EA0CFB1C072D10E00C5F1F4F102F00270B
:10454000C80184966F2D0E94ED21C80185966E2DBD
:104550000E94ED21DF91CF911F910F91FF90EF907D
:10456000DF90CF90BF90AF909F908F907F900895F5
:104570000F931F93FA01890140E050E09F010E94D0
:1045800047221F910F9108950F931F93182F66E2F2
:1045900070E00E94F01F082F812F67E270E00E94F8
:1045A000F01F502F40E0282F30E0242B352BC9017D
:1045B0001F910F910895FF920F931F93CF93DF9355
:1045C000F62EC0E0D0E08F2D0E94C4228C0100970F
:1045D00021F08F2D0E94C422EC01C017D10799F75A
:1045E000CE01DF91CF911F910F91FF9008950F930E
:1045F0001F93182F60E270E00E94F01F082F812F98
:1046000061E270E00E94F01F502F40E0282F30E060
:10461000242B352BC9011F910F910895FF920F9301
:104620001F93CF93DF93F62EC0E0D0E08F2D0E9432
:10463000F7228C01009721F08F2D0E94F722EC01C8
:10464000C017D10799F7CE01DF91CF911F910F913C
:10465000FF900895DC0120E030E09FE01DC02A9823
:104660009EBD0DB407FEFDCF8EB5BEBD0DB407FED9
:10467000FDCF8EB5AEBD0DB407FEFDCF8EB51EBC11
:104680000DB407FEFDCF11968EB5FB01E20FF31FAF
:1046900080832A9A2F5F3F4F2417350700F3CA0102
:1046A0000895CF92DF92EF92FF920F931F93CF93D3
:1046B000DF93690178015770C62FD0E02496CC0FA4
:1046C000DD1FC80FD91F28813981240F351FC8016C
:1046D000840F951F8150984088F000E018E0041B7B
:1046E000150BC901B601A8010E942A23E01AF10A9C
:1046F000888199810C0D1D1DB80102C0C901B60148
:10470000A7010E942A23DF91CF911F910F91FF9063
:10471000EF90DF90CF9008958F929F92AF92BF92CB
:10472000CF92DF92EF92FF920F931F93CF93DF937D
:104730007C01A62E6A014901B02E862F68E270E046
:104740000E94F01F182F8A2D69E270E00E94F01F6E
:10475000C82FD0E0912F80E0C82BD92BC7016A2D3C
:10476000AE01960184010E945123BB2099F47E0181
:10477000E80CF91C0A2D10E00C5F1F4F102F0027CA
:10478000C80188966F2D0E94ED21C80189966E2D73
:104790000E94ED21DF91CF911F910F91FF90EF903B
:1047A000DF90CF90BF90AF909F908F9008951F9310
:1047B000162F962F80E08F5F9B4F642F0E94ED2174
:1047C000812F61E070E00E94F01F8823C9F71F91DC
:1047D00008950F931F93182F092F6CE271E080E06A
:1047E00090E00E94A4320E942E24229A80E090E061
:1047F00060E80E94ED218BE190E065E50E94ED21EB
:104800008AE190E065E50E94ED21212F302FC9015A
:10481000FC0180E090E4918380838050904E9187EA
:10482000808780509841329620E68030920799F731
:104830001F910F910895F999FECF72BD61BDF89A4D
:1048400080B50895F999FECF1FBA72BD61BD40BD14
:104850000FB6F894FA9AF99A0FBE08958AE061E0CB
:104860000E94D1338AE061E00E9465338CB580619B
:104870008CBD8CB580648CBD8DE061E00E94653399
:104880008BE061E00E9465330895FB0180E3808343
:10489000842F82958F704F704A3014F4405D01C0B0
:1048A000495C41833197882311F0482FF1CF089557
:1048B0000F9388E495E060E040E020E000E00E9493
:1048C0003F300F9108950F931F938C01625E7F4FCD
:1048D0000E94A930C8011F910F9108950F931F9353
:1048E0008C016A5E7F4F0E94A930C8011F910F9111
:1048F00008950F931F938C016E5E7F4F0E94A93025
:10490000C8011F910F9108950F931F938C01625F4F
:104910007F4F0E94A930C8011F910F9108952F92D7
:104920003F924F925F926F927F928F929F92AF923F
:10493000BF92CF92DF92EF92FF920F931F93DF937C
:10494000CF93CDB7DEB7E8970FB6F894DEBF0FBEB2
:10495000CDBF5C013A014B0129010E9470327B01FD
:104960008C01F7E4CF2ED12CCA0CDB1C14C00E94A2
:1049700070326E197F09800B910B661677068806D8
:10498000990618F477247A941AC262E370E080E002
:1049900090E00E94A432C6010E94951E18161906C6
:1049A00034F7C601BE01635F7F4F42E250E00E94D0
:1049B000471E8D85823009F0FEC12CE530E0A20E45
:1049C000B31EF5018081918124EA3FEFA20EB31E50
:1049D0008334910509F0EFC129893A894B895C89B3
:1049E000E52EFF2400271127B22FAA279927882711
:1049F000E82AF92A0A2B1B2BB42FA32F922F8827E2
:104A000080709070B070E82AF92A0A2B1B2B232F94
:104A1000342F452F5527207040705070E22AF32A1A
:104A2000042B152BF201E082F18202831383B5017E
:104A3000685F7F4FCE01899646E050E00E94750284
:104A4000009799F4F50180819181A281B381E816E4
:104A5000F9060A071B0748F084819581A681B78172
:104A60008E159F05A007B10728F4C6010E940F1EEE
:104A70007724A5C18D8D9E8DAF8DB8A1F501868758
:104A80009787A08BB18B00E010E0C6010E946A1EE0
:104A90000F5F1F4F0E3C1105C1F795012E5E3F4F72
:104AA00038AF2FABC50146969EAB8DABF5017E9618
:104AB000FCABEBAB8AE1882E912C8A0C9B1C9501F8
:104AC0002A5D3F4F3AAB29ABC5018A9698AB8FA7B9
:104AD00002E2202E312C2A0C3B1C772418E5412EB3
:104AE000512C4A0C5B1C5FC1C6010E946A1E8333B5
:104AF000910509F414C1843391058CF4813091053A
:104B000069F18230910524F4892B09F44CC140C12C
:104B10008330910551F1069709F03AC142C08A33BA
:104B2000910509F490C08B3391053CF485339105D0
:104B300069F0C69709F02CC150C08B33910509F478
:104B4000B8C08F3F910509F023C12DC1C6010E9455
:104B50006A1EC6010E946A1E782E25C1C6010E94E7
:104B60006A1EC6016FA978AD62C0C6010E946A1EA6
:104B7000182FC6016DA97EA944E050E00E94471E8F
:104B8000EE24FF24012F10E00450104006C0C6019F
:104B90000E946A1E0894E11CF11CE016F106BCF3A9
:104BA00002C1C6010E946A1E182FC6016BA97CA90A
:104BB00044E050E00E94471EEE24FF24012F10E045
:104BC0000450104006C0C6010E946A1E0894E11CF1
:104BD000F11CE016F106BCF3E6C0C6010E946A1E95
:104BE000182FF40180819181A281B3810097A105E2
:104BF000B105D9F0CE010196B4010E94A9302DE291
:104C000033E038872F83F201208131814281538143
:104C100029873A874B875C878B819C81AD81BE81D8
:104C200082179307A407B50759F4C601B40144E0FD
:104C300050E00E94471EB7C0C6010E946A1E115074
:104C40001123D1F7B0C0C6010E946A1EC60169A92E
:104C50007AA944E050E00E94471EF50126A137A141
:104C600040A551A5E52EFF2400271127B22FAA2722
:104C700099278827E82AF92A0A2B1B2BB42FA32F60
:104C8000922F882780709070B070E82AF92A0A2B3A
:104C90001B2B232F342F452F552720704070507029
:104CA000E22AF32A042B152BE6A2F7A200A711A7EC
:104CB0007AC0C6010E946A1EC6016FA578A944E0A9
:104CC00050E00E94471EF50122A533A544A555A535
:104CD000E52EFF2400271127B22FAA27992788271E
:104CE000E82AF92A0A2B1B2BB42FA32F922F8827EF
:104CF00080709070B070E82AF92A0A2B1B2B232FA2
:104D0000342F452F5527207040705070E22AF32A27
:104D1000042B152BE2A6F3A604A715A744C0C601D1
:104D20000E946A1EC601B10144E050E00E94471E85
:104D3000F50122A133A144A155A1E52EFF240027AE
:104D40001127B22FAA2799278827E82AF92A0A2BA0
:104D50001B2BB42FA32F922F882780709070B070D8
:104D6000E82AF92A0A2B1B2B232F342F452F5527EE
:104D7000207040705070E22AF32A042B152BE2A217
:104D8000F3A204A315A3E6A6F7A600AB11AB0BC0D4
:104D9000C6010E946A1E182F04C0C6010E946A1E26
:104DA00011501123D1F7C6010E94F31D18161906E0
:104DB0000CF49ACE01C07724C6010E940F1E872DE5
:104DC000E8960FB6F894DEBF0FBECDBFCF91DF914E
:104DD0001F910F91FF90EF90DF90CF90BF90AF9019
:104DE0009F908F907F906F905F904F903F902F900B
:104DF00008950E96FC0184E1DF011D928A95E9F782
:104E000008954F925F926F927F928F929F92AF928E
:104E1000BF92CF92DF92EF92FF920F931F93DF9397
:104E2000CF93CDB7DEB7E2970FB6F894DEBF0FBED3
:104E3000CDBF6C01462E3A01F3E18F2E912C8C0EE2
:104E40009D1EE0E25E2EF401252D11922A95E9F7D0
:104E5000CE0107966FEF4FEF2FEF0FEF0E943F301D
:104E600077E4A72EB12CAC0CBD1C8DE293E09E879D
:104E70008D8789859A85AB85BC858F87988BA98B13
:104E8000BA8BC501BE01635F7F4F43E450E00E94CF
:104E9000091F8F5F9F4F09F4F3C081E08B8B8C8BD0
:104EA00086E08D8B1E8AF6012481358146815781EB
:104EB000E52EFF2400271127B22FAA27992788273C
:104EC000E82AF92A0A2B1B2BB42FA32F922F88270D
:104ED00080709070B070E82AF92A0A2B1B2B232FC0
:104EE000342F452F5527207040705070E22AF32A46
:104EF000042B152BEB82FC820D831E83EF8AF88E28
:104F0000098F1A8F7B8E6C8E80E890E09A8389835C
:104F10009E8F8D8FC501B4014CE150E00E94E91EC7
:104F2000F40111925A94E9F7A8E06A2E712C6C0CE6
:104F30007D1CD401F30186E001900D928150E1F7D0
:104F40008E010D5E1F4FC501B80140E150E00E9487
:104F5000E91E80E2F80111928A95E9F7EE24FF2418
:104F6000902E012FC501692D702F40E250E00E9464
:104F7000E91E0894E11CF11CF6E0EF16F10491F72C
:104F800093E69B8B82E88C8B83E58D8B9E8B85E3F0
:104F90008F8B91E0988F498E8DE38A8F87E08B8F7E
:104FA0009C8FDE015D96F30186E001900D928150A9
:104FB000E1F78CE08BA38CA38E010D5E1F4FCE0119
:104FC000859660E071E00E948202C601BE01655DC7
:104FD0007F4FF60143850E944524C601BE01635DF3
:104FE0007F4FF60144850E944524C601BE01615DE4
:104FF0007F4FF60145850E944524C501B8014EE169
:1050000050E00E94E91EF3E04F16F1F482E38B8B2F
:1050100094E09C8BF60186858D8B87858E8B8089AD
:105020008F8B8189888F86E3898F9A8F828D8B8F72
:10503000838D8C8F848D8D8F858D8E8FC501B8016A
:105040004CE050E00E94E91E87E38B8B96E09C8B3E
:1050500081E08D8B83E08E8B9F8B8FE0888F8AE33E
:10506000898F8BE38A8F8FEF8B8FC501BE016D5EB9
:105070007F4F49E050E00E94E91EC5010E94041FD5
:10508000E2960FB6F894DEBF0FBECDBFCF91DF9191
:105090001F910F91FF90EF90DF90CF90BF90AF9056
:1050A0009F908F907F906F905F904F9008952F9278
:1050B0003F924F925F926F927F928F929F92AF92A8
:1050C000BF92CF92DF92EF92FF920F931F93DF93E5
:1050D000CF9300D000D0CDB7DEB78C0161E070E097
:1050E00080E090E020ED37E040E050E00E94763430
:1050F000D80114966C93149715967C931597169671
:105100008C93169717969C9317976C9311967C9394
:10511000119712968C93129713969C9377E4472ECF
:10512000512C400E511EC2010E94981FC20164E41E
:1051300070E00E94AD1F882319F46624772422C1F1
:105140000E9470324B015C016624772466E4C62E0F
:10515000D12CC00ED11E5EE3252E312C200E311E27
:1051600042E0E42EFBC0882309F5F8018481958193
:10517000A681B7810196A11DB11D84839583A68365
:10518000B7830E947032681979098A099B0928EE51
:1051900033E040E050E00E944938C80161E0A901D5
:1051A0000E94012781E0D6018C93C2C0843001F5B2
:1051B000F80184819581A681B7810196A11DB11D59
:1051C00084839583A683B7830E9470326819790916
:1051D0008A099B0928EE33E040E050E00E944938FC
:1051E000C80163E0A9010E940127D601EC92A0C08A
:1051F000813069F5F1014081518162817381C8017B
:105200009E012F5F3F4F0E948F24F82EF2E08F17F0
:1052100009F089C089819A81AB81BC81F8018483BE
:105220009583A683B7830E947032681979098A0929
:105230009B0928EE33E040E050E00E944938C80165
:1052400063E0A9010E940127D601FC9271C082305F
:1052500009F06EC0F1014081518162817381C80102
:105260009E012F5F3F4F0E948F24F82EF5E08F178D
:1052700009F053C0E3E0D601EC93F80182A193A1B9
:10528000A4A1B5A10097A105B10541F484E893E07C
:10529000A0E0B0E082A393A3A4A3B5A3F80186A1E4
:1052A00097A1A0A5B1A50097A105B10561F482A1C0
:1052B00093A1A4A1B5A1B695A7959795879586A327
:1052C00097A3A0A7B1A7F80182A593A5A4A5B5A50A
:1052D0000097A105B10561F486A197A1A0A5B1A58C
:1052E000880F991FAA1FBB1F82A793A7A4A7B5A7C2
:1052F000F80186A197A1A0A5B1A586A797A7A0AB05
:10530000B1AB82A593A5A4A5B5A582AB93ABA4AB85
:10531000B5ABA1E06A2E712C0BC0F6E08F1719F423
:10532000D6011C9205C0BFEFFB1611F4F6011082E6
:10533000F1E06F16710491F00E94703268197909DA
:105340008A099B09D801DA962D913D914D915C9186
:10535000DD97261737074807590728F0F60180819F
:10536000833009F000CFC2010E94981FF8018481A8
:105370009581A681B7810196A11DB11D8483958376
:10538000A683B783C3010F900F900F900F90CF911A
:10539000DF911F910F91FF90EF90DF90CF90BF9022
:1053A000AF909F908F907F906F905F904F903F90C5
:1053B0002F9008954F925F926F927F928F929F925B
:1053C000AF92BF92CF92DF92EF92FF920F931F9313
:1053D000CF93DF93EC010E9470325B016C018EA9C8
:1053E0009FA9A8ADB9AD12E4412E512C4C0E5D1E03
:1053F0000097A105B10509F4A3C0F2018081918154
:10540000A281B38135014601681A790A8A0A9B0A8A
:1054100097FC5BC0F8EEEF2EF3E0FF2E012D112D6F
:10542000EA0CFB1C0C1D1D1DC401B30128EE33E06A
:1054300040E050E00E946B38E61AF70A080B190B9F
:10544000D201ED92FD920D931C931397C401B30109
:1054500028EE33E040E050E00E946B38C901DA01E9
:105460000196A11DB11D2EA53FA548A959A93C0132
:105470004D01660C771C881C991C261537054805BC
:1054800059052CF41EA61FA618AA19AA08C0281B85
:10549000390B4A0B5B0B2EA73FA748AB59AB2AA988
:1054A0003BA94CA95DA926153705480559052CF4DB
:1054B0001AAA1BAA1CAA1DAA08C0281B390B4A0B32
:1054C0005B0B2AAB3BAB4CAB5DABFE01EA5BFF4F2A
:1054D0008081833091F48EA59FA5A8A9B9A918163B
:1054E00019061A061B064CF084E08083CE010E9448
:1054F00057289C012F5F3F4F02C020E030E0CA5B7D
:10550000DF4F8881C654D040833011F0882381F565
:105510008AA99BA9ACA9BDA9181619061A061B06CB
:105520003CF1CA5BDF4F1882C654D040CE010E94C6
:10553000F926CE010E9457289C012D5F3F4F18C0CD
:1055400088EE93E0A0E0B0E0A80EB91ECA1EDB1EF4
:10555000D201AD92BD92CD92DC92139788E19CEF7F
:10556000AFEFBFEFA80EB91ECA1EDB1E20E030E071
:10557000AEAABFAAC8AED9AEC901DF91CF911F9123
:105580000F91FF90EF90DF90CF90BF90AF909F90E2
:105590008F907F906F905F904F900895CF92DF92A1
:1055A000EF92FF920F931F93CF93DF93EC01D62ED0
:1055B000C72E1AA21BA21CA21DA21EA21FA218A6C1
:1055C00019A61AA61BA61CA61DA61EAA1FAA18AEBF
:1055D00019AE2AAF3BAF4CAF5DAFEE96E882F982D1
:1055E0000A831B83EE978E01085F1F4F86E0F80148
:1055F00011928A95E9F7CE010E94F926D8012D2D46
:105600003C2DC901FC0186E001900D928150E1F72B
:10561000CA5BDF4F1882C654D040CE010E94572883
:10562000DF91CF911F910F91FF90EF90DF90CF907E
:1056300008959C01FB0182819381A481B581F901C8
:1056400082839383A483B583178216820895CF93B0
:10565000DF93FB0101C0319680818823E1F7EB01E4
:10566000A0E0B0E020E030E021C06E3261F42F3FD6
:10567000310509F07CF5FA01EA0FFB1F2283119630
:1056800020E030E012C0C901E3E0880F991FEA95DD
:10569000E1F7220F331F820F931F262F332727FD99
:1056A000309520533040280F391F2196688166239A
:1056B00019F0A430B105CCF22F3F310509F054F4B4
:1056C000A430B1053CF4A40FB51F12962C9321E031
:1056D00030E002C020E030E0C901DF91CF910895B1
:1056E0000F938EE495E060E040E020E000E00E944F
:1056F0003F300F9108952F923F924F925F926F9299
:105700007F928F929F92AF92BF92CF92DF92EF9251
:10571000FF920F931F93DF93CF93CDB7DEB76997B7
:105720000FB6F894DEBF0FBECDBF4C018B011A013E
:105730000E9470322B013C01F8E0EF2EF12CE80CB6
:10574000F91C5801CC24DD2414C00E947032641965
:10575000750986099709A616B706C806D90618F46A
:105760002FEF3FEF0BC162E370E080E090E00E941A
:10577000A432C7010E94951E1816190634F7F401C9
:105780002281338144815581818D928DA38DB48D89
:105790008A879B87AC87BD87281739074A075B072D
:1057A00009F0EAC0858D968DC59709F0E5C000C166
:1057B0008E01025F1F4FC701B8014CE050E00E940C
:1057C000471EF801528143815B834A83F40126819D
:1057D00037818E859F852817390711F457FD06C03C
:1057E000C7010E940F1E2CEF3FEFC8C04F705270D0
:1057F000452B31F0C7010E940F1E2BEF3FEFBEC0BB
:10580000F801768067806114710441F0AA24BB24FA
:1058100048012E010894411C511C28C0C7010E9458
:105820000F1E2AEF3FEFAAC0C701B20141E050E0CE
:105830000E94471E8981882321F408C0C7010E9465
:105840006A1E8981815089838F5FC1F7898188238E
:1058500059F700E010E0C7010E946A1E0F5F1F4F5A
:1058600004301105C1F70894A11CB11CF401D480C7
:10587000C580AC14BD04C0F244245524C701BE0148
:105880006F5F7F4F41E050E00E94471E9981892F52
:10589000807C61F4992321F40DC0C7010E946A1E27
:1058A0008981815089838F5FC1F704C0C7010E943D
:1058B0006A1E19828981882309F7C701BE016C5FBE
:1058C0007F4F42E050E00E94471EC701BE016A5F61
:1058D0007F4F42E050E00E94471E00E010E0C70109
:1058E0000E946A1E0F5F1F4F04301105C1F7C701E8
:1058F000BE016E5F7F4F42E050E00E94471EDC8099
:10590000CD80F1E0CF16D10419F5BE80AF8081E0E3
:10591000A816B104E9F49A818B81049731F0C7018C
:105920000E940F1E27EF3FEF29C0E2E0F0E02E0EAD
:105930003F1EC701B10144E050E00E94471E21E034
:1059400030E01CC0C7010E946A1E0F5F1F4F02C0DB
:1059500000E010E09A808B800815190598F30894F0
:10596000411C511C4614570408F488CFC7010E94FB
:105970000F1E26EF3FEF02C02EEF3FEFC9016996E1
:105980000FB6F894DEBF0FBECDBFCF91DF911F9150
:105990000F91FF90EF90DF90CF90BF90AF909F90CE
:1059A0008F907F906F905F904F903F902F900895D1
:1059B0008DE293E099878887C7010E94F31D0C97B9
:1059C0000CF0F6CE2DEF3FEFD9CF6F927F928F92F2
:1059D0009F92AF92BF92CF92DF92EF92FF920F937E
:1059E0001F93DF93CF9300D00F92CDB7DEB78C011A
:1059F000F62EE72E0E947032F80177836683B8E0B6
:105A0000CB2ED12CC00ED11E0A5F1F4FC601B8018C
:105A100042E050E00E94E91E81E090E09B838A838F
:105A2000A2E08A2E912C8C0E9D1EC601B40142E08C
:105A300050E00E94E91E80E091E09B838A83C601CA
:105A4000B40142E050E00E94E91E1B821A82C601A6
:105A5000B40142E050E00E94E91EC601B40142E0F8
:105A600050E00E94E91EC601B40142E050E00E94ED
:105A7000E91E2F2D3E2DC9018C017C013E010894A9
:105A8000611C711C20C00894E11CF11CF70180818D
:105A9000882311F08E32B9F75701A01AB10A1A14EF
:105AA0001B0474F48E2D801B8983C601B30141E071
:105AB00050E00E94E91EC601B801A5010E94E91E3E
:105AC00087010F5F1F4FF7018081882311F0780154
:105AD000DDCF1982C601BE016F5F7F4F41E050E00C
